:100000000C942A001895000018950000189500001F
:10001000189500001895000018950000189500002C
:10002000189500001895000018950000189500001C
:10003000189500001895000018950000189500000C
:1000400018950000189500001895000018950000FC
:10005000189500008FE58DBFC8E3E0E24E2E84E0E6
:100060008EBFD4E0F4E05F2EA89584B7082E877F7A
:1000700084BF88E1992781BD91BDEEEFF3E0A0E652
:10008000B0E088278D933197E9F76624D098D1980E
:10009000D298D398BF988FEF84BBB79A80E08093B3
:1000A000600009B3003011F00C945B008FE3809383
:1000B00061000C94B80009B3013011F00C94650094
:1000C00086E0809361000C94B80009B3023011F00F
:1000D0000C946F008BE5809361000C94B80009B319
:1000E000033011F00C9479008FE4809361000C943C
:1000F000B80009B3043011F00C94830086E68093B5
:1001000061000C94B80009B3053011F00C948D0017
:100110008DE6809361000C94B80009B3063011F0AD
:100120000C9497008DE7809361000C94B80009B39C
:10013000073011F00C94A10087E0809361000C94CB
:10014000B80009B3083011F00C94AB008FE780932E
:1001500061000C94B80009B3093011F00C94B5009B
:100160008FE6809361000C94B80080E0809361007A
:10017000A0E6B0E08C9185BBB7990C94B800A1E6DD
:10018000B0E08C9185BBB7990C94BF000C94B8007B
:10019000F894FFCF3197F1F70895689462F80895C5
:0601A000E89462F80895E6
:00000001FF
